:100000000C945D000C9485000C9485000C94850084
:100010000C9485000C9485000C9485000C9485004C
:100020000C9485000C9485000C9485000C9485003C
:100030000C9485000C9485000C9485000C9485002C
:100040000C944F030C9485000C941D030C94F70240
:100050000C9485000C9485000C9485000C9485000C
:100060000C9485000C94850000000008000201003B
:100070000003040700000000000000000000000072
:10008000250028002B0000000000240027002A0083
:10009000040404040404040402020202020203032E
:1000A0000303030301020408102040800102040836
:1000B0001020010204081020990311241FBECFEF65
:1000C000D8E0DEBFCDBF22E0A2E5B1E001C01D92C5
:1000D000A834B207E1F711E0A0E0B1E0ECE4FCE005
:1000E00002C005900D92A235B107D9F710E0CDE519
:1000F000D0E004C02197FE010E941906CC35D1073B
:10010000C9F70E94D8030C9424060C940000E3E67F
:10011000F1E0A089B18982E08C93A485B5851C9219
:10012000A685B7858FEC8C93108EA489B58986E05F
:100130008C93A289B3898C9180618C93A289B389B5
:100140008C9188608C93A289B3898C9180688C9300
:100150000288F389E02D80818F7D80830895CF927E
:10016000DF92EF92FF920F931F93CF93DF936C0177
:100170007A018B01C0E0D0E0CE15DF0589F0D8010F
:100180006D918D01D601ED91FC910190F081E02DF2
:10019000C6010995892B11F47E0102C02196ECCF8E
:1001A000C701DF91CF911F910F91FF90EF90DF90EA
:1001B000CF900895089580E090E00895FC01538D5C
:1001C000448D252F30E0842F90E0821B930B541731
:1001D00010F0CF96089501970895FC01918D828DBE
:1001E000981761F0828DDF01A80FB11D5D968C918B
:1001F000928D9F5F9F73928F90E008958FEF9FEF96
:100200000895FC01918D828D981731F0828DE80F51
:10021000F11D858D90E008958FEF9FEF0895FC010B
:10022000918D228D892F90E0805C9F4F821B9109D8
:100230008F739927089583E691E00E940F0121E0D2
:10024000892B09F420E0822F0895FC01848DDF01C1
:10025000A80FB11DA35ABF4F2C91848D90E0019639
:100260008F739927848FA689B7892C93A089B18928
:100270008C9180648C93938D848D981306C0028832
:10028000F389E02D80818F7D80830895EF92FF9226
:100290000F931F93CF93DF93EC0181E0888F9B8DA9
:1002A0008C8D981305C0E889F989808185FD24C06B
:1002B000F62E0B8D10E00F5F1F4F0F731127E02EEE
:1002C0008C8DE8120CC00FB607FCFACFE889F989CB
:1002D000808185FFF5CFCE010E942501F1CF8B8D66
:1002E000FE01E80FF11DE35AFF4FF0820B8FEA8900
:1002F000FB898081806207C0EE89FF896083E8897D
:10030000F98980818064808381E090E0DF91CF91E2
:100310001F910F91FF90EF900895CF93DF93EC0121
:10032000888D8823C9F0EA89FB89808185FD05C015
:10033000A889B9898C9186FD0FC00FB607FCF5CF4F
:10034000808185FFF2CFA889B9898C9185FFEDCF97
:10035000CE010E942501E7CFDF91CF91089580E083
:1003600090E0892B29F00E941B0181110C94000060
:10037000089590E0FC01E859FF4F3491FC01EC55E1
:10038000FF4F2491FC01E057FF4FE491EE2309F465
:100390003BC0332339F1333091F038F43130A9F0D8
:1003A000323001F584B58F7D12C0373091F038308E
:1003B000A1F03430B9F4809180008F7D03C080912A
:1003C00080008F77809380000DC084B58F7784BDC7
:1003D00009C08091B0008F7703C08091B0008F7DFD
:1003E0008093B000F0E0EE0FFF1FE458FF4FA5919F
:1003F000B4918FB7F894EC91611103C020952E232E
:1004000001C02E2B2C938FBF08953FB7F894809195
:10041000570190915801A0915901B0915A0126B508
:10042000A89B05C02F3F19F00196A11DB11D3FBF2C
:10043000BA2FA92F982F8827820F911DA11DB11DBA
:10044000BC01CD0142E0660F771F881F991F4A95B6
:10045000D1F708958F929F92AF92BF92CF92DF9281
:10046000EF92FF926B017C010E9405024B015C013F
:10047000C114D104E104F104F1F00E940502DC0191
:10048000CB0188199909AA09BB09883E9340A105A7
:10049000B10570F321E0C21AD108E108F10888EE35
:1004A000880E83E0981EA11CB11CC114D104E10484
:1004B000F10419F7DDCFFF90EF90DF90CF90BF9060
:1004C000AF909F908F9008952FB7F894609153014B
:1004D0007091540180915501909156012FBF08955C
:1004E0008F929F92AF92BF92CF92DF92EF92FF9244
:1004F0006B017C010E9464024B015C01C60ED71E99
:10050000E81EF91E0E946402681579058A059B059C
:1005100028F0C616D706E806F906A0F7FF90EF9078
:10052000DF90CF90BF90AF909F908F9008950E94E2
:100530001F066115710579F0FB0101900020E9F7B4
:100540003197AF01461B570BDC01ED91FC91028006
:10055000F381E02D099480E090E008954F925F923E
:100560006F927F92EF92FF920F931F93CF93DF933F
:10057000CDB7DEB7A1970FB6F894DEBF0FBECDBFE3
:100580007C01FA01CB0119A2223008F42AE08E0185
:100590000F5D1F4F422E512C612C712CBF01A30106
:1005A00092010E94F705F901CA01015011096A3050
:1005B00014F4605D01C0695CD8016C93232B242B7B
:1005C000252B61F7B801C7010E949902A1960FB6C9
:1005D000F894DEBF0FBECDBFDF91CF911F910F9179
:1005E000FF90EF907F906F905F904F9008951F92D3
:1005F0000F920FB60F9211242F933F934F935F9357
:100600006F937F938F939F93AF93BF93EF93FF93DA
:1006100083E691E00E942501FF91EF91BF91AF9198
:100620009F918F917F916F915F914F913F912F910A
:100630000F900FBE0F901F9018951F920F920FB63C
:100640000F9211242F938F939F93EF93FF93E09139
:100650007301F09174018081E0917901F0917A0148
:1006600082FD12C0908180917C018F5F8F732091F9
:100670007D01821751F0E0917C01F0E0ED59FE4FD1
:10068000958F80937C0101C08081FF91EF919F91B4
:100690008F912F910F900FBE0F901F9018951F9262
:1006A0000F920FB60F9211242F933F938F939F9326
:1006B000AF93BF938091530190915401A091550144
:1006C000B09156013091520123E0230F2D3720F4D1
:1006D0000196A11DB11D05C026E8230F0296A11D9C
:1006E000B11D209352018093530190935401A09324
:1006F0005501B09356018091570190915801A091F6
:100700005901B0915A010196A11DB11D8093570165
:1007100090935801A0935901B0935A01BF91AF91A2
:100720009F918F913F912F910F900FBE0F901F902F
:100730001895E3E6F1E01382128288EE93E0A0E0E0
:10074000B0E084839583A683B78384E091E09183AE
:10075000808385EC90E09587848784EC90E0978790
:10076000868780EC90E0918B808B81EC90E0938B7E
:10077000828B82EC90E0958B848B86EC90E0978B5B
:10078000868B118E128E138E148EE0E0F2E01682AC
:100790001782108611861286138614861586168691
:1007A0001786108A118A128A138A148A158A089564
:1007B000789484B5826084BD84B5816084BD85B53C
:1007C000826085BD85B5816085BD80916E00816048
:1007D00080936E00109281008091810082608093EE
:1007E00081008091810081608093810080918000F0
:1007F0008160809380008091B10084608093B1001B
:100800008091B00081608093B00080917A00846014
:1008100080937A0080917A00826080937A00809140
:100820007A00816080937A0080917A00806880935A
:100830007A001092C1001092440210924502109268
:100840004602109247021092020210920302109286
:1008500004021092050268EB7BE080E090E00E94C9
:10086000700283E691E090934302809342020E94DB
:1008700087000E94640260930202709303028093D7
:1008800004029093050262E171E08091420290912E
:1008900043020E9499026AE070E080E090E00E94CA
:1008A000700281E080931602E1EBF0E02491EDE923
:1008B000F0E08491882399F090E0880F991FFC0163
:1008C000EA57FF4FA591B491FC01E458FF4F859181
:1008D00094918FB7F894EC91E22BEC938FBF60E08A
:1008E0008DE00E94B90168EE73E080E090E00E9424
:1008F0002A020E94870084EFC82EDD24D394E12CC5
:10090000F12C90E4B92E0FEF13E00E946402672BE4
:10091000682B692B41F40E946402623071058105E5
:10092000910508F40BC10E94640260935F0170930B
:100930006001809361019093620140905B0150904F
:100940005C0160905D0170905E016415750586051F
:10095000970540F460935B0170935C0180935D01A7
:1009600090935E0140905B0150905C0160905D014E
:1009700070905E019B01AC012419350946095709A5
:1009800029013A013AEF431651046104710408F455
:10099000D5C060935B0170935C0180935D0190937F
:1009A0005E01C0920E02D0920F02E0921002F0920D
:1009B000110210921202109213021092140210925D
:1009C00015028091060290910702A0910802B09151
:1009D000090280930A0290930B02A0930C02B09339
:1009E0000D020E94640260930602709307028093D6
:1009F0000802909309020E946402609302027093BD
:100A0000030280930402909305020E9464022B016A
:100A10003C0164E271E080914202909143020E94A5
:100A200099022AE041E050E060E070E080914202EB
:100A3000909143020E94AE026BE271E0809142020B
:100A4000909143020E9499022AE0B301A201809191
:100A50004202909143020E94AE026DE271E08091E9
:100A60004202909143020E94990280910602909165
:100A70000702A0910802B0910902B301A201481B2C
:100A8000590B6A0B7B0B2AE0809142029091430242
:100A90000E94AE026DE271E08091420290914302A9
:100AA0000E9499024091060250910702609108024B
:100AB0007091090280910A0290910B02A0910C02A0
:100AC000B0910D02481B590B6A0B7B0B2AE08091F9
:100AD0004202909143020E94AE026FE271E0809167
:100AE0004202909143020E9499020E946402AB016B
:100AF000BC012AE080914202909143020E94AE0222
:100B0000C0914202D091430261E371E0CE010E94A4
:100B1000990261E271E0CE010E94990262E070E008
:100B200080E090E00E9470020E94640260930602DE
:100B300070930702809308029093090268E371E0C2
:100B400083E691E00E94990261E08DE00E94B90184
:100B500064EF71E080E090E00E942A02B0927C0095
:100B600080917A00806480937A0080917A0086FD7B
:100B7000FCCFC091780080917900D0E0D82B60E064
:100B80008DE00E94B901C8018C1B9D0B2C01092E20
:100B9000000C6608770897FF14C0E0916301F0919C
:100BA00064010190F081E02D6DE283E691E009950A
:100BB00044275527BA0144195509660977092AE0DF
:100BC00003C02AE0B301A20183E691E00E94AE02D5
:100BD00061E271E083E691E00E94990268EE73E0C1
:100BE00080E090E00E942A020E94AF018ECEA1E236
:100BF0001A2EAA1BBB1BFD010DC0AA1FBB1FEE1F97
:100C0000FF1FA217B307E407F50720F0A21BB30BE1
:100C1000E40BF50B661F771F881F991F1A9469F75D
:100C200060957095809590959B01AC01BD01CF01B9
:100C30000895EE0FFF1F0590F491E02D099481E0D7
:0C0C400090E0F8940C942406F894FFCF88
:100C4C00000000004601AF00DE008D010F01ED0039
:100C5C000101564D4450565F317C315F564D445026
:100C6C00560D0A00564D4450455F003A323A007C0E
:100C7C00005F564D4450450048756D696469747940
:100C8C00204C6576656C2028302D31303233293A72
:020C9C00200036
:00000001FF
