:100000000C9435000C945D000C945D000C945D0024
:100010000C945D000C945D000C945D000C945D00EC
:100020000C945D000C945D000C945D000C945D00DC
:100030000C945D000C945D000C945D000C945D00CC
:100040000C94A4020C945D000C9472020C944C026B
:100050000C945D000C945D000C945D000C945D00AC
:100060000C945D000C945D00EE0211241FBECFEFD6
:10007000D8E0DEBFCDBF22E0ACE5B1E001C01D920B
:10008000A635B207E1F711E0A0E0B1E0E4E3FBE060
:1000900002C005900D92AC35B107D9F710E0C5E369
:1000A000D0E004C02197FE010E948D05C433D10722
:1000B000C9F70E942D030C9498050C940000E1E709
:1000C000F1E0A089B18982E08C93A089B1891C926A
:1000D000A485B5851C92A685B78580E18C93108E8A
:1000E000A489B58986E08C93A289B3898C918061BB
:1000F0008C93A289B3898C9188608C93A289B389EF
:100100008C9180688C930288F389E02D80818F7DAB
:1001100080830895CF92DF92EF92FF920F931F9307
:10012000CF93DF936C017A018B01C0E0D0E0CE1554
:10013000DF0589F0D8016D918D01D601ED91FC911B
:100140000190F081E02DC6010995892B11F47E0103
:1001500002C02196ECCFC701DF91CF911F910F9183
:10016000FF90EF90DF90CF900895089580E090E0A9
:100170000895FC01538D448D252F30E0842F90E0AD
:10018000821B930B541710F0CF9608950197089592
:10019000FC01918D828D981761F0828DDF01A80F8F
:1001A000B11D5D968C91928D9F5F9F73928F90E0B1
:1001B00008958FEF9FEF0895FC01918D828D981720
:1001C00031F0828DE80FF11D858D90E008958FEF5D
:1001D0009FEF0895FC01918D228D892F90E0805C26
:1001E0009F4F821B91098F739927089581E791E0B2
:1001F0000E94EA0021E0892B09F420E0822F089573
:10020000FC01848DDF01A80FB11DA35ABF4F2C91B3
:10021000848D90E001968F739927848FA689B78982
:100220002C93A089B1898C9180648C93938D848D5B
:10023000981306C00288F389E02D80818F7D80832A
:100240000895EF92FF920F931F93CF93DF93EC01EA
:1002500081E0888F9B8D8C8D981305C0E889F98982
:10026000808185FD24C0F62E0B8D10E00F5F1F4F9F
:100270000F731127E02E8C8DE8120CC00FB607FC0F
:10028000FACFE889F989808185FFF5CFCE010E94F8
:100290000001F1CF8B8DFE01E80FF11DE35AFF4FF6
:1002A000F0820B8FEA89FB898081806207C0EE892A
:1002B000FF896083E889F98980818064808381E097
:1002C00090E0DF91CF911F910F91FF90EF900895F3
:1002D000CF93DF93EC01888D8823C9F0EA89FB89ED
:1002E000808185FD05C0A889B9898C9186FD0FC0E4
:1002F0000FB607FCF5CF808185FFF2CFA889B989B9
:100300008C9185FFEDCFCE010E940001E7CFDF91F8
:10031000CF91089580E090E0892B29F00E94F600AB
:1003200081110C94000008953FB7F8948091610109
:1003300090916201A0916301B091640126B5A89BE0
:1003400005C02F3F19F00196A11DB11D3FBFBA2F67
:10035000A92F982F8827820F911DA11DB11DBC01C7
:10036000CD0142E0660F771F881F991F4A95D1F78C
:1003700008952FB7F89460915D0170915E018091AE
:100380005F01909160012FBF08958F929F92AF926D
:10039000BF92CF92DF92EF92FF926B017C010E949D
:1003A000B9014B015C01C60ED71EE81EF91E0E9462
:1003B000B901681579058A059B0528F0C616D70688
:1003C000E806F906A0F7FF90EF90DF90CF90BF907E
:1003D000AF909F908F9008950E94930561157105CD
:1003E00079F0FB0101900020E9F73197AF01461B3E
:1003F000570BDC01ED91FC910280F381E02D099413
:1004000080E090E008954F925F926F927F92EF921A
:10041000FF920F931F93CF93DF93CDB7DEB7A197D2
:100420000FB6F894DEBF0FBECDBF7C01FA01CB0141
:1004300019A2223008F42AE08E010F5D1F4F422ED0
:10044000512C612C712CBF01A30192010E946B05FC
:10045000F901CA01015011096A3014F4605D01C04C
:10046000695CD8016C93232B242B252B61F7B801F1
:10047000C7010E94EE01A1960FB6F894DEBF0FBE31
:10048000CDBFDF91CF911F910F91FF90EF907F90A3
:100490006F905F904F9008951F920F920FB60F923A
:1004A00011242F933F934F935F936F937F938F9379
:1004B0009F93AF93BF93EF93FF9381E791E00E94E7
:1004C0000001FF91EF91BF91AF919F918F917F912B
:1004D0006F915F914F913F912F910F900FBE0F90B1
:1004E0001F9018951F920F920FB60F9211242F9301
:1004F0008F939F93EF93FF93E0918101F09182019D
:100500008081E0918701F091880182FD12C0908185
:1005100080918A018F5F8F7320918B01821751F038
:10052000E0918A01F0E0EF58FE4F958F80938A01A9
:1005300001C08081FF91EF919F918F912F910F903A
:100540000FBE0F901F9018951F920F920FB60F922B
:1005500011242F933F938F939F93AF93BF938091D9
:100560005D0190915E01A0915F01B09160013091B9
:100570005C0123E0230F2D3720F40196A11DB11D4E
:1005800005C026E8230F0296A11DB11D20935C0132
:1005900080935D0190935E01A0935F01B093600131
:1005A0008091610190916201A0916301B091640119
:1005B0000196A11DB11D8093610190936201A093EA
:1005C0006301B0936401BF91AF919F918F913F916F
:1005D0002F910F900FBE0F901F901895E1E7F1E05B
:1005E0001382128288EE93E0A0E0B0E084839583CA
:1005F000A683B78384E091E09183808385EC90E0CB
:100600009587848784EC90E09787868780EC90E0DC
:10061000918B808B81EC90E0938B828B82EC90E0CD
:10062000958B848B86EC90E0978B868B118E128E47
:10063000138E148EEEE0F2E0168217821086118679
:10064000128613861486158616861786108A118AD6
:10065000128A138A148A158A0895789484B5826060
:1006600084BD84B5816084BD85B5826085BD85B556
:10067000816085BD80916E00816080936E001092D4
:10068000810080918100826080938100809181004F
:1006900081608093810080918000816080938000E0
:1006A0008091B10084608093B1008091B00081603E
:1006B0008093B00080917A00846080937A0080916A
:1006C0007A00826080937A0080917A0081608093C2
:1006D0007A0080917A00806880937A001092C1003D
:1006E000109252021092530210925402109255022C
:1006F0001092100210921102109212021092130224
:1007000068EB7BE080E090E00E94C50181E791E02A
:1007100090935102809350020E945F000E94B901A1
:10072000609310027093110280931202909313024F
:1007300062E171E080915002909151020E94EE01BD
:100740006AE070E080E090E00E94C50181E0809363
:1007500024020E945F0064E271E081E791E00E9460
:10076000EE0161E271E081E791E00E94EE0144EF69
:10077000C42EDD24D394E12CF12CC0E40E94B901F5
:10078000672B682B692B41F40E94B9016230710517
:100790008105910508F40BC10E94B90160936D01B8
:1007A00070936E0180936F01909370018090690146
:1007B00090906A01A0906B01B0906C01681579056A
:1007C0008A059B0540F46093690170936A018093E8
:1007D0006B0190936C018090690190906A01A090E8
:1007E0006B01B0906C019B01AC01281939094A09D1
:1007F0005B0949015A013AEF83169104A104B1043F
:1008000008F4D5C06093690170936A0180936B010D
:1008100090936C01C0921C02D0921D02E0921E02C5
:10082000F0921F02109220021092210210922202D6
:10083000109223028091140290911502A091160249
:10084000B09117028093180290931902A0931A0294
:10085000B0931B020E94B9016093140270931502B9
:1008600080931602909317020E94B90160931002C0
:100870007093110280931202909313020E94B901A7
:100880004B015C0160E371E0809150029091510254
:100890000E94EE012AE041E050E060E070E08091CB
:1008A0005002909151020E94030267E371E080912F
:1008B0005002909151020E94EE012AE0B501A4017C
:1008C00080915002909151020E94030269E371E00D
:1008D00080915002909151020E94EE018091140289
:1008E00090911502A0911602B0911702B501A401D2
:1008F000481B590B6A0B7B0B2AE0809150029091A8
:1009000051020E94030269E371E0809150029091CC
:1009100051020E94EE014091140250911502609123
:100920001602709117028091180290911902A091FD
:100930001A02B0911B02481B590B6A0B7B0B2AE071
:1009400080915002909151020E9403026BE371E08A
:1009500080915002909151020E94EE010E94B901D3
:10096000AB01BC012AE080915002909151020E949B
:100970000302A0905002B09051026DE371E0C501F6
:100980000E94EE0161E271E0C5010E94EE0162E0A9
:1009900070E080E090E00E94C5010E94B901609380
:1009A000140270931502809316029093170210920E
:1009B00068011092670110926601109265018091A2
:1009C00065019091660102970CF04CC0C0937C00C9
:1009D00080917A00806480937A0080917A0086FD0D
:1009E000FCCF809178002091790090E0922B2091AB
:1009F000670130916801820F931F90936801809383
:100A000067010E9494012B013C0130ED832E37E0F9
:100A1000932EA12CB12C0E949401DC01CB018419EE
:100A20009509A609B709883E9340A105B10558F07C
:100A300041E0841A9108A108B10858EE450E53E030
:100A4000551E611C711C81149104A104B10419F795
:100A50008091650190916601019690936601809363
:100A60006501ADCF64E471E081E791E00E94EE01A1
:100A7000809167019091680197FD01969595879502
:100A80004C01092E000CAA08BB0897FF14C0E09186
:100A90007101F09172010190F081E02D6DE281E72A
:100AA00091E0099544275527BA01481959096A095F
:100AB0007B092AE003C02AE0B501A40181E791E0A7
:100AC0000E94030261E271E081E791E00E94EE0181
:100AD0000E948A0153CEA1E21A2EAA1BBB1BFD0164
:100AE0000DC0AA1FBB1FEE1FFF1FA217B307E4070D
:100AF000F50720F0A21BB30BE40BF50B661F771F65
:100B0000881F991F1A9469F7609570958095909544
:100B10009B01AC01BD01CF010895EE0FFF1F0590B1
:100B2000F491E02D099481E090E0F8940C949805FC
:040B3000F894FFCF67
:100B34000000000021018A00B9006801EA00C80031
:100B4400DC00564D4450565F317C315F564D445065
:100B5400560D0A005374617274696E672E2E2E004E
:100B6400564D4450455F003A323A007C005F564D82
:100B7400445045004D6F6973747572652053656EFA
:0C0B8400736F722056616C75653A0000BA
:00000001FF
